{
  "_format": "hh-sol-artifact-1",
  "contractName": "WitFactory",
  "sourceName": "contracts/Factory.sol",
  "abi": [
    {
      "inputs": [
        {
          "internalType": "address",
          "name": "treasury_",
          "type": "address"
        },
        {
          "internalType": "address",
          "name": "swap_",
          "type": "address"
        },
        {
          "internalType": "address",
          "name": "action_",
          "type": "address"
        },
        {
          "internalType": "address",
          "name": "oracle_",
          "type": "address"
        }
      ],
      "stateMutability": "nonpayable",
      "type": "constructor"
    },
    {
      "inputs": [],
      "name": "action",
      "outputs": [
        {
          "internalType": "address",
          "name": "",
          "type": "address"
        }
      ],
      "stateMutability": "view",
      "type": "function"
    },
    {
      "inputs": [
        {
          "internalType": "address",
          "name": "inputToken_",
          "type": "address"
        },
        {
          "internalType": "address[]",
          "name": "outputTokens_",
          "type": "address[]"
        },
        {
          "internalType": "uint256[]",
          "name": "weights_",
          "type": "uint256[]"
        }
      ],
      "name": "create",
      "outputs": [],
      "stateMutability": "nonpayable",
      "type": "function"
    },
    {
      "inputs": [],
      "name": "oracle",
      "outputs": [
        {
          "internalType": "address",
          "name": "",
          "type": "address"
        }
      ],
      "stateMutability": "view",
      "type": "function"
    },
    {
      "inputs": [],
      "name": "swap",
      "outputs": [
        {
          "internalType": "address",
          "name": "",
          "type": "address"
        }
      ],
      "stateMutability": "view",
      "type": "function"
    },
    {
      "inputs": [],
      "name": "treasury",
      "outputs": [
        {
          "internalType": "address",
          "name": "",
          "type": "address"
        }
      ],
      "stateMutability": "view",
      "type": "function"
    },
    {
      "inputs": [
        {
          "internalType": "uint256",
          "name": "",
          "type": "uint256"
        }
      ],
      "name": "wits",
      "outputs": [
        {
          "internalType": "address",
          "name": "",
          "type": "address"
        }
      ],
      "stateMutability": "view",
      "type": "function"
    }
  ],
  "bytecode": "0x608060405234801561001057600080fd5b5060405161211738038061211783398101604081905261002f9161009e565b600180546001600160a01b039586166001600160a01b03199182161790915560028054948616948216949094179093556003805492851692841692909217909155600480549190931691161790556100f2565b80516001600160a01b038116811461009957600080fd5b919050565b600080600080608085870312156100b457600080fd5b6100bd85610082565b93506100cb60208601610082565b92506100d960408601610082565b91506100e760608601610082565b905092959194509250565b612016806101016000396000f3fe60806040523480156200001157600080fd5b50600436106200006a5760003560e01c80630a7a1c4d146200006f578063583cc477146200009f57806361d027b314620000b85780637dc0d1d014620000cc5780638119c06514620000e0578063db77aa3e14620000f4575b600080fd5b60035462000083906001600160a01b031681565b6040516001600160a01b03909116815260200160405180910390f35b620000b6620000b036600462000302565b6200010b565b005b60015462000083906001600160a01b031681565b60045462000083906001600160a01b031681565b60025462000083906001600160a01b031681565b6200008362000105366004620003e4565b620001c8565b6001546002546003546004546040516000946001600160a01b039081169489948994899492841693918216929116906200014590620001f3565b6200015797969594939291906200043b565b604051809103906000f08015801562000174573d6000803e3d6000fd5b50600080546001810182559080527f290decd9548b62a8d60345a988386fc84ba6bc95484008f6362f93160ef3e5630180546001600160a01b0319166001600160a01b039290921691909117905550505050565b60008181548110620001d957600080fd5b6000918252602090912001546001600160a01b0316905081565b611af280620004ef83390190565b80356001600160a01b03811681146200021957600080fd5b919050565b634e487b7160e01b600052604160045260246000fd5b604051601f8201601f1916810167ffffffffffffffff811182821017156200026057620002606200021e565b604052919050565b600067ffffffffffffffff8211156200028557620002856200021e565b5060051b60200190565b600082601f830112620002a157600080fd5b81356020620002ba620002b48362000268565b62000234565b82815260059290921b84018101918181019086841115620002da57600080fd5b8286015b84811015620002f75780358352918301918301620002de565b509695505050505050565b6000806000606084860312156200031857600080fd5b620003238462000201565b925060208085013567ffffffffffffffff808211156200034257600080fd5b818701915087601f8301126200035757600080fd5b813562000368620002b48262000268565b81815260059190911b8301840190848101908a8311156200038857600080fd5b938501935b82851015620003b157620003a18562000201565b825293850193908501906200038d565b965050506040870135925080831115620003ca57600080fd5b5050620003da868287016200028f565b9150509250925092565b600060208284031215620003f757600080fd5b5035919050565b600081518084526020808501945080840160005b83811015620004305781518752958201959082019060010162000412565b509495945050505050565b600060e0820160018060a01b03808b1684526020818b168186015260e06040860152828a5180855261010087019150828c01945060005b818110156200049257855185168352948301949183019160010162000472565b50508581036060870152620004a8818b620003fe565b945050505050620004c460808301866001600160a01b03169052565b6001600160a01b03841660a08301526001600160a01b03831660c08301529897505050505050505056fe6080604052612710600a553480156200001757600080fd5b5060405162001af238038062001af28339810160408190526200003a9162000453565b604051806040016040528060118152602001702ba4a1a1a09024b73232bc102a37b5b2b760791b8152506040518060400160405280600381526020016215d25560ea1b815250816003908051906020019062000098929190620002ae565b508051620000ae906004906020840190620002ae565b5050508351855114620001085760405162461bcd60e51b815260206004820152601e60248201527f5749543a3a636f6e7374727563746f723a20696e707574206572726f722e000060448201526064015b60405180910390fd5b600580546001600160a01b03808a166001600160a01b031992831617909255600680549289169290911691909117905560005b8451811015620002105760078682815181106200015c576200015c62000581565b60209081029190910181015182546001810184556000938452919092200180546001600160a01b0319166001600160a01b039092169190911790558451600890869083908110620001b157620001b162000581565b602090810291909101810151825460018101845560009384529190922001558451859082908110620001e757620001e762000581565b60200260200101516009600082825462000202919062000597565b90915550506001016200013b565b50600a5460095414620002665760405162461bcd60e51b815260206004820152601e60248201527f5749543a3a636f6e7374727563746f723a20696e707574206572726f722e00006044820152606401620000ff565b600b80546001600160a01b039485166001600160a01b031991821617909155600c805493851693821693909317909255600d805491909316911617905550620005fb92505050565b828054620002bc90620005be565b90600052602060002090601f016020900481019282620002e057600085556200032b565b82601f10620002fb57805160ff19168380011785556200032b565b828001600101855582156200032b579182015b828111156200032b5782518255916020019190600101906200030e565b50620003399291506200033d565b5090565b5b808211156200033957600081556001016200033e565b80516001600160a01b03811681146200036c57600080fd5b919050565b634e487b7160e01b600052604160045260246000fd5b604051601f8201601f191681016001600160401b0381118282101715620003b257620003b262000371565b604052919050565b60006001600160401b03821115620003d657620003d662000371565b5060051b60200190565b600082601f830112620003f257600080fd5b815160206200040b6200040583620003ba565b62000387565b82815260059290921b840181019181810190868411156200042b57600080fd5b8286015b848110156200044857805183529183019183016200042f565b509695505050505050565b600080600080600080600060e0888a0312156200046f57600080fd5b6200047a8862000354565b965060206200048b818a0162000354565b60408a01519097506001600160401b0380821115620004a957600080fd5b818b0191508b601f830112620004be57600080fd5b8151620004cf6200040582620003ba565b81815260059190911b8301840190848101908e831115620004ef57600080fd5b938501935b828510156200051857620005088562000354565b82529385019390850190620004f4565b60608e0151909a5094505050808311156200053257600080fd5b5050620005428a828b01620003e0565b945050620005536080890162000354565b92506200056360a0890162000354565b91506200057360c0890162000354565b905092959891949750929550565b634e487b7160e01b600052603260045260246000fd5b60008219821115620005b957634e487b7160e01b600052601160045260246000fd5b500190565b600181811c90821680620005d357607f821691505b60208210811415620005f557634e487b7160e01b600052602260045260246000fd5b50919050565b6114e7806200060b6000396000f3fe608060405234801561001057600080fd5b50600436106101735760003560e01c80636e04ff0d116100de578063a457c2d711610097578063dd62ed3e11610071578063dd62ed3e14610346578063ea8a1af01461025f578063f3fef3a314610359578063f8e0ec5c1461036c57600080fd5b8063a457c2d71461030d578063a9059cbb14610320578063b5f163ff1461033357600080fd5b80636e04ff0d1461028757806370a08231146102ad5780637dc0d1d0146102d65780638119c065146102e957806395d89b41146102fc57806396c82e571461030457600080fd5b806328c34c081161013057806328c34c0814610218578063313ce5671461022b578063395093511461023a5780634585e33b1461024d57806347e7ef241461026157806361d027b31461027457600080fd5b806301b60ef21461017857806306fdde03146101a8578063095ea7b3146101bd5780630a7a1c4d146101e057806318160ddd146101f357806323b872dd14610205575b600080fd5b60065461018b906001600160a01b031681565b6040516001600160a01b0390911681526020015b60405180910390f35b6101b0610381565b60405161019f919061109d565b6101d06101cb3660046110d3565b610413565b604051901515815260200161019f565b600c5461018b906001600160a01b031681565b6002545b60405190815260200161019f565b6101d06102133660046110fd565b61042b565b61018b610226366004611139565b61044f565b6040516012815260200161019f565b6101d06102483660046110d3565b610479565b61025f61025b366004611152565b5050565b005b61025f61026f3660046110d3565b61049b565b60055461018b906001600160a01b031681565b61029f610295366004611152565b5060009160609150565b60405161019f9291906111c4565b6101f76102bb3660046111e7565b6001600160a01b031660009081526020819052604090205490565b600d5461018b906001600160a01b031681565b600b5461018b906001600160a01b031681565b6101b0610539565b6101f760095481565b6101d061031b3660046110d3565b610548565b6101d061032e3660046110d3565b6105c8565b6101f7610341366004611139565b6105d6565b6101f7610354366004611202565b6105f7565b61025f6103673660046110d3565b610622565b61025f61037a366004611235565b5050505050565b60606003805461039090611277565b80601f01602080910402602001604051908101604052809291908181526020018280546103bc90611277565b80156104095780601f106103de57610100808354040283529160200191610409565b820191906000526020600020905b8154815290600101906020018083116103ec57829003601f168201915b5050505050905090565b6000336104218185856107a8565b5060019392505050565b6000336104398582856108cc565b610444858585610946565b506001949350505050565b6007818154811061045f57600080fd5b6000918252602090912001546001600160a01b0316905081565b60003361042181858561048c83836105f7565b61049691906112c2565b6107a8565b6006546040516323b872dd60e01b8152336004820152306024820152604481018390526001600160a01b03909116906323b872dd90606401602060405180830381600087803b1580156104ed57600080fd5b505af1158015610501573d6000803e3d6000fd5b505050506040513d601f19601f8201168201806040525081019061052591906112da565b5061052f81610aea565b61025b8282610c1d565b60606004805461039090611277565b6000338161055682866105f7565b9050838110156105bb5760405162461bcd60e51b815260206004820152602560248201527f45524332303a2064656372656173656420616c6c6f77616e63652062656c6f77604482015264207a65726f60d81b60648201526084015b60405180910390fd5b61044482868684036107a8565b600033610421818585610946565b600881815481106105e657600080fd5b600091825260209091200154905081565b6001600160a01b03918216600090815260016020908152604080832093909416825291909152205490565b61062c3382610cdc565b60005b6007548110156107a3576007818154811061064c5761064c6112fc565b6000918252602090912001546001600160a01b031663a9059cbb8461067060025490565b8560078681548110610684576106846112fc565b6000918252602090912001546040516370a0823160e01b81523060048201526001600160a01b03909116906370a082319060240160206040518083038186803b1580156106d057600080fd5b505afa1580156106e4573d6000803e3d6000fd5b505050506040513d601f19601f820116820180604052508101906107089190611312565b610712919061132b565b61071c919061134a565b6040516001600160e01b031960e085901b1681526001600160a01b0390921660048301526024820152604401602060405180830381600087803b15801561076257600080fd5b505af1158015610776573d6000803e3d6000fd5b505050506040513d601f19601f8201168201806040525081019061079a91906112da565b5060010161062f565b505050565b6001600160a01b03831661080a5760405162461bcd60e51b8152602060048201526024808201527f45524332303a20617070726f76652066726f6d20746865207a65726f206164646044820152637265737360e01b60648201526084016105b2565b6001600160a01b03821661086b5760405162461bcd60e51b815260206004820152602260248201527f45524332303a20617070726f766520746f20746865207a65726f206164647265604482015261737360f01b60648201526084016105b2565b6001600160a01b0383811660008181526001602090815260408083209487168084529482529182902085905590518481527f8c5be1e5ebec7d5bd14f71427d1e84f3dd0314c0f7b2291e5b200ac8c7c3b925910160405180910390a3505050565b60006108d884846105f7565b9050600019811461094057818110156109335760405162461bcd60e51b815260206004820152601d60248201527f45524332303a20696e73756666696369656e7420616c6c6f77616e636500000060448201526064016105b2565b61094084848484036107a8565b50505050565b6001600160a01b0383166109aa5760405162461bcd60e51b815260206004820152602560248201527f45524332303a207472616e736665722066726f6d20746865207a65726f206164604482015264647265737360d81b60648201526084016105b2565b6001600160a01b038216610a0c5760405162461bcd60e51b815260206004820152602360248201527f45524332303a207472616e7366657220746f20746865207a65726f206164647260448201526265737360e81b60648201526084016105b2565b6001600160a01b03831660009081526020819052604090205481811015610a845760405162461bcd60e51b815260206004820152602660248201527f45524332303a207472616e7366657220616d6f756e7420657863656564732062604482015265616c616e636560d01b60648201526084016105b2565b6001600160a01b03848116600081815260208181526040808320878703905593871680835291849020805487019055925185815290927fddf252ad1be2c89b69c2b068fc378daa952ba7f163c4a11628f55a4df523b3ef910160405180910390a3610940565b6000610af4610e0e565b90506000805b8251811015610b6657600a5460088281548110610b1957610b196112fc565b9060005260206000200154848381518110610b3657610b366112fc565b6020026020010151610b48919061132b565b610b52919061134a565b610b5c90836112c2565b9150600101610afa565b50600081610b7c85670de0b6b3a764000061132b565b610b86919061134a565b905060005b60075481101561037a5760065460078054610c15926001600160a01b0316919084908110610bbb57610bbb6112fc565b9060005260206000200160009054906101000a90046001600160a01b031630600a548660088781548110610bf157610bf16112fc565b9060005260206000200154610c06919061132b565b610c10919061134a565b610f42565b600101610b8b565b6001600160a01b038216610c735760405162461bcd60e51b815260206004820152601f60248201527f45524332303a206d696e7420746f20746865207a65726f20616464726573730060448201526064016105b2565b8060026000828254610c8591906112c2565b90915550506001600160a01b038216600081815260208181526040808320805486019055518481527fddf252ad1be2c89b69c2b068fc378daa952ba7f163c4a11628f55a4df523b3ef910160405180910390a35050565b6001600160a01b038216610d3c5760405162461bcd60e51b815260206004820152602160248201527f45524332303a206275726e2066726f6d20746865207a65726f206164647265736044820152607360f81b60648201526084016105b2565b6001600160a01b03821660009081526020819052604090205481811015610db05760405162461bcd60e51b815260206004820152602260248201527f45524332303a206275726e20616d6f756e7420657863656564732062616c616e604482015261636560f01b60648201526084016105b2565b6001600160a01b0383166000818152602081815260408083208686039055600280548790039055518581529192917fddf252ad1be2c89b69c2b068fc378daa952ba7f163c4a11628f55a4df523b3ef910160405180910390a3505050565b60075460609060009067ffffffffffffffff811115610e2f57610e2f61136c565b604051908082528060200260200182016040528015610e58578160200160208202803683370190505b50905060005b600754811015610f3c57600d54600780546001600160a01b039092169163b95ed06f919084908110610e9257610e926112fc565b60009182526020909120015460405160e083901b6001600160e01b03191681526001600160a01b039091166004820152602401602060405180830381600087803b158015610edf57600080fd5b505af1158015610ef3573d6000803e3d6000fd5b505050506040513d601f19601f82011682018060405250810190610f179190611312565b828281518110610f2957610f296112fc565b6020908102919091010152600101610e5e565b50919050565b6040805160028082526060820183526000926020830190803683370190505090508481600081518110610f7757610f776112fc565b60200260200101906001600160a01b031690816001600160a01b0316815250508381600181518110610fab57610fab6112fc565b6001600160a01b039283166020918202929092010152600b54604051634401edf760e11b8152911690638803dbee90610ff290859060001990869089908390600401611382565b600060405180830381600087803b15801561100c57600080fd5b505af1158015611020573d6000803e3d6000fd5b505050506040513d6000823e601f3d908101601f1916820160405261104891908101906113f3565b505050505050565b6000815180845260005b818110156110765760208185018101518683018201520161105a565b81811115611088576000602083870101525b50601f01601f19169290920160200192915050565b6020815260006110b06020830184611050565b9392505050565b80356001600160a01b03811681146110ce57600080fd5b919050565b600080604083850312156110e657600080fd5b6110ef836110b7565b946020939093013593505050565b60008060006060848603121561111257600080fd5b61111b846110b7565b9250611129602085016110b7565b9150604084013590509250925092565b60006020828403121561114b57600080fd5b5035919050565b6000806020838503121561116557600080fd5b823567ffffffffffffffff8082111561117d57600080fd5b818501915085601f83011261119157600080fd5b8135818111156111a057600080fd5b8660208285010111156111b257600080fd5b60209290920196919550909350505050565b82151581526040602082015260006111df6040830184611050565b949350505050565b6000602082840312156111f957600080fd5b6110b0826110b7565b6000806040838503121561121557600080fd5b61121e836110b7565b915061122c602084016110b7565b90509250929050565b600080600080600060a0868803121561124d57600080fd5b611256866110b7565b97602087013597506040870135966060810135965060800135945092505050565b600181811c9082168061128b57607f821691505b60208210811415610f3c57634e487b7160e01b600052602260045260246000fd5b634e487b7160e01b600052601160045260246000fd5b600082198211156112d5576112d56112ac565b500190565b6000602082840312156112ec57600080fd5b815180151581146110b057600080fd5b634e487b7160e01b600052603260045260246000fd5b60006020828403121561132457600080fd5b5051919050565b6000816000190483118215151615611345576113456112ac565b500290565b60008261136757634e487b7160e01b600052601260045260246000fd5b500490565b634e487b7160e01b600052604160045260246000fd5b600060a082018783526020878185015260a0604085015281875180845260c086019150828901935060005b818110156113d25784516001600160a01b0316835293830193918301916001016113ad565b50506001600160a01b03969096166060850152505050608001529392505050565b6000602080838503121561140657600080fd5b825167ffffffffffffffff8082111561141e57600080fd5b818501915085601f83011261143257600080fd5b8151818111156114445761144461136c565b8060051b604051601f19603f830116810181811085821117156114695761146961136c565b60405291825284820192508381018501918883111561148757600080fd5b938501935b828510156114a55784518452938501939285019261148c565b9897505050505050505056fea2646970667358221220d0b835709987d786fcbdb1e6325a30cd43b95833c88325ac4cd6570f7060834364736f6c63430008090033a264697066735822122091b6211a94520cea39279d53ee4de1adf245eea67dbad092ab0d7946c3f52dce64736f6c63430008090033",
  "linkReferences": {},
  "deployedLinkReferences": {}
}